{
  "contractName": "Certi",
  "abi": [
    {
      "inputs": [],
      "stateMutability": "nonpayable",
      "type": "constructor"
    },
    {
      "inputs": [],
      "name": "certificateCount",
      "outputs": [
        {
          "internalType": "uint256",
          "name": "",
          "type": "uint256"
        }
      ],
      "stateMutability": "view",
      "type": "function",
      "constant": true
    },
    {
      "inputs": [
        {
          "internalType": "uint256",
          "name": "",
          "type": "uint256"
        }
      ],
      "name": "certificateDetails",
      "outputs": [
        {
          "internalType": "uint256",
          "name": "certificateId",
          "type": "uint256"
        },
        {
          "internalType": "string",
          "name": "courseName",
          "type": "string"
        },
        {
          "internalType": "string",
          "name": "candidateName",
          "type": "string"
        },
        {
          "internalType": "string",
          "name": "grade",
          "type": "string"
        },
        {
          "internalType": "string",
          "name": "date",
          "type": "string"
        }
      ],
      "stateMutability": "view",
      "type": "function",
      "constant": true
    },
    {
      "inputs": [
        {
          "internalType": "string",
          "name": "_courseName",
          "type": "string"
        },
        {
          "internalType": "string",
          "name": "_candidateName",
          "type": "string"
        },
        {
          "internalType": "string",
          "name": "_grade",
          "type": "string"
        },
        {
          "internalType": "string",
          "name": "_date",
          "type": "string"
        }
      ],
      "name": "newCertificate",
      "outputs": [],
      "stateMutability": "nonpayable",
      "type": "function"
    }
  ],
  "bytecode": "0x608060405234801561001057600080fd5b50336000806101000a81548173ffffffffffffffffffffffffffffffffffffffff021916908373ffffffffffffffffffffffffffffffffffffffff160217905550610a5b806100606000396000f3fe608060405234801561001057600080fd5b50600436106100415760003560e01c806344128c871461004657806352d7b89c1461007a578063f507d3b814610098575b600080fd5b610060600480360381019061005b9190610569565b6100b4565b60405161007195949392919061063e565b60405180910390f35b61008261030a565b60405161008f91906106ad565b60405180910390f35b6100b260048036038101906100ad91906107fd565b610310565b005b60026020528060005260406000206000915090508060000154908060010180546100dd90610903565b80601f016020809104026020016040519081016040528092919081815260200182805461010990610903565b80156101565780601f1061012b57610100808354040283529160200191610156565b820191906000526020600020905b81548152906001019060200180831161013957829003601f168201915b50505050509080600201805461016b90610903565b80601f016020809104026020016040519081016040528092919081815260200182805461019790610903565b80156101e45780601f106101b9576101008083540402835291602001916101e4565b820191906000526020600020905b8154815290600101906020018083116101c757829003601f168201915b5050505050908060030180546101f990610903565b80601f016020809104026020016040519081016040528092919081815260200182805461022590610903565b80156102725780601f1061024757610100808354040283529160200191610272565b820191906000526020600020905b81548152906001019060200180831161025557829003601f168201915b50505050509080600401805461028790610903565b80601f01602080910402602001604051908101604052809291908181526020018280546102b390610903565b80156103005780601f106102d557610100808354040283529160200191610300565b820191906000526020600020905b8154815290600101906020018083116102e357829003601f168201915b5050505050905085565b60015481565b60008054906101000a900473ffffffffffffffffffffffffffffffffffffffff1673ffffffffffffffffffffffffffffffffffffffff163373ffffffffffffffffffffffffffffffffffffffff161461039e576040517f08c379a000000000000000000000000000000000000000000000000000000000815260040161039590610980565b60405180910390fd5b60018060008282546103b091906109cf565b925050819055506040518060a0016040528060015481526020018581526020018481526020018381526020018281525060026000600154815260200190815260200160002060008201518160000155602082015181600101908051906020019061041b92919061047c565b50604082015181600201908051906020019061043892919061047c565b50606082015181600301908051906020019061045592919061047c565b50608082015181600401908051906020019061047292919061047c565b5090505050505050565b82805461048890610903565b90600052602060002090601f0160209004810192826104aa57600085556104f1565b82601f106104c357805160ff19168380011785556104f1565b828001600101855582156104f1579182015b828111156104f05782518255916020019190600101906104d5565b5b5090506104fe9190610502565b5090565b5b8082111561051b576000816000905550600101610503565b5090565b6000604051905090565b600080fd5b600080fd5b6000819050919050565b61054681610533565b811461055157600080fd5b50565b6000813590506105638161053d565b92915050565b60006020828403121561057f5761057e610529565b5b600061058d84828501610554565b91505092915050565b61059f81610533565b82525050565b600081519050919050565b600082825260208201905092915050565b60005b838110156105df5780820151818401526020810190506105c4565b838111156105ee576000848401525b50505050565b6000601f19601f8301169050919050565b6000610610826105a5565b61061a81856105b0565b935061062a8185602086016105c1565b610633816105f4565b840191505092915050565b600060a0820190506106536000830188610596565b81810360208301526106658187610605565b905081810360408301526106798186610605565b9050818103606083015261068d8185610605565b905081810360808301526106a18184610605565b90509695505050505050565b60006020820190506106c26000830184610596565b92915050565b600080fd5b600080fd5b7f4e487b7100000000000000000000000000000000000000000000000000000000600052604160045260246000fd5b61070a826105f4565b810181811067ffffffffffffffff82111715610729576107286106d2565b5b80604052505050565b600061073c61051f565b90506107488282610701565b919050565b600067ffffffffffffffff821115610768576107676106d2565b5b610771826105f4565b9050602081019050919050565b82818337600083830152505050565b60006107a061079b8461074d565b610732565b9050828152602081018484840111156107bc576107bb6106cd565b5b6107c784828561077e565b509392505050565b600082601f8301126107e4576107e36106c8565b5b81356107f484826020860161078d565b91505092915050565b6000806000806080858703121561081757610816610529565b5b600085013567ffffffffffffffff8111156108355761083461052e565b5b610841878288016107cf565b945050602085013567ffffffffffffffff8111156108625761086161052e565b5b61086e878288016107cf565b935050604085013567ffffffffffffffff81111561088f5761088e61052e565b5b61089b878288016107cf565b925050606085013567ffffffffffffffff8111156108bc576108bb61052e565b5b6108c8878288016107cf565b91505092959194509250565b7f4e487b7100000000000000000000000000000000000000000000000000000000600052602260045260246000fd5b6000600282049050600182168061091b57607f821691505b60208210810361092e5761092d6108d4565b5b50919050565b7f496e737566696369656e742070726976696c6167650000000000000000000000600082015250565b600061096a6015836105b0565b915061097582610934565b602082019050919050565b600060208201905081810360008301526109998161095d565b9050919050565b7f4e487b7100000000000000000000000000000000000000000000000000000000600052601160045260246000fd5b60006109da82610533565b91506109e583610533565b9250827fffffffffffffffffffffffffffffffffffffffffffffffffffffffffffffffff03821115610a1a57610a196109a0565b5b82820190509291505056fea264697066735822122097a1a831292c16f65f017d10d4bc484c93db9a4d772227615946a4c00b0685d764736f6c634300080d0033",
  "immutableReferences": {},
  "source": "// SPDX-License-Identifier: MIT\npragma solidity 0.8.13;\n\ncontract Certi {\n    address admin;\n\n    uint256 public certificateCount;\n\n    constructor() {\n        admin = msg.sender;\n    }\n\n    modifier onlyAdmin() {\n        require(msg.sender == admin, \"Insuficient privilage\");\n        _;\n    }\n\n    struct certificate {\n        uint256 certificateId;\n        string courseName;\n        string candidateName;\n        string grade;\n        string date;\n    }\n\n    mapping(uint256 => certificate) public certificateDetails;\n\n    function newCertificate(\n        string memory _courseName,\n        string memory _candidateName,\n        string memory _grade,\n        string memory _date\n    ) public onlyAdmin {\n        certificateCount += 1;\n        certificateDetails[certificateCount] = certificate(\n            certificateCount,\n            _courseName,\n            _candidateName,\n            _grade,\n            _date\n        );\n    }\n}\n",
  "sourcePath": "C:\\Lab\\KBAIC-DApp\\contracts\\Certi.sol",
  "compiler": {
    "name": "solc",
    "version": "0.8.13+commit.abaa5c0e.Emscripten.clang"
  },
  "schemaVersion": "3.4.7",
  "updatedAt": "2022-06-08T05:00:36.226Z",
  "networkType": "ethereum",
  "devdoc": {
    "kind": "dev",
    "methods": {},
    "version": 1
  },
  "userdoc": {
    "kind": "user",
    "methods": {},
    "version": 1
  }
}